{"abi":[{"type":"constructor","inputs":[],"stateMutability":"nonpayable"},{"type":"function","name":"allowance","inputs":[{"name":"owner","type":"address","internalType":"address"},{"name":"spender","type":"address","internalType":"address"}],"outputs":[{"name":"","type":"uint256","internalType":"uint256"}],"stateMutability":"view"},{"type":"function","name":"approve","inputs":[{"name":"spender","type":"address","internalType":"address"},{"name":"value","type":"uint256","internalType":"uint256"}],"outputs":[{"name":"","type":"bool","internalType":"bool"}],"stateMutability":"nonpayable"},{"type":"function","name":"balanceOf","inputs":[{"name":"owner","type":"address","internalType":"address"}],"outputs":[{"name":"","type":"uint256","internalType":"uint256"}],"stateMutability":"view"},{"type":"function","name":"burn","inputs":[{"name":"value","type":"uint256","internalType":"uint256"}],"outputs":[],"stateMutability":"nonpayable"},{"type":"function","name":"decimals","inputs":[],"outputs":[{"name":"","type":"uint8","internalType":"uint8"}],"stateMutability":"pure"},{"type":"function","name":"decreaseAllowance","inputs":[{"name":"spender","type":"address","internalType":"address"},{"name":"subtractedValue","type":"uint256","internalType":"uint256"}],"outputs":[{"name":"","type":"bool","internalType":"bool"}],"stateMutability":"nonpayable"},{"type":"function","name":"i_owner","inputs":[],"outputs":[{"name":"","type":"address","internalType":"address"}],"stateMutability":"view"},{"type":"function","name":"increaseAllowance","inputs":[{"name":"spender","type":"address","internalType":"address"},{"name":"addedValue","type":"uint256","internalType":"uint256"}],"outputs":[{"name":"","type":"bool","internalType":"bool"}],"stateMutability":"nonpayable"},{"type":"function","name":"mint","inputs":[{"name":"to","type":"address","internalType":"address"},{"name":"value","type":"uint256","internalType":"uint256"}],"outputs":[],"stateMutability":"nonpayable"},{"type":"function","name":"name","inputs":[],"outputs":[{"name":"","type":"string","internalType":"string"}],"stateMutability":"pure"},{"type":"function","name":"s_balance","inputs":[{"name":"","type":"address","internalType":"address"}],"outputs":[{"name":"","type":"uint256","internalType":"uint256"}],"stateMutability":"view"},{"type":"function","name":"s_isHolder","inputs":[{"name":"","type":"address","internalType":"address"}],"outputs":[{"name":"","type":"bool","internalType":"bool"}],"stateMutability":"view"},{"type":"function","name":"s_totalSupply","inputs":[],"outputs":[{"name":"","type":"uint256","internalType":"uint256"}],"stateMutability":"view"},{"type":"function","name":"symbol","inputs":[],"outputs":[{"name":"","type":"string","internalType":"string"}],"stateMutability":"pure"},{"type":"function","name":"totalSupply","inputs":[],"outputs":[{"name":"","type":"uint256","internalType":"uint256"}],"stateMutability":"view"},{"type":"function","name":"transfer","inputs":[{"name":"to","type":"address","internalType":"address"},{"name":"value","type":"uint256","internalType":"uint256"}],"outputs":[{"name":"","type":"bool","internalType":"bool"}],"stateMutability":"nonpayable"},{"type":"function","name":"transferFrom","inputs":[{"name":"from","type":"address","internalType":"address"},{"name":"to","type":"address","internalType":"address"},{"name":"value","type":"uint256","internalType":"uint256"}],"outputs":[{"name":"","type":"bool","internalType":"bool"}],"stateMutability":"nonpayable"},{"type":"event","name":"Approval","inputs":[{"name":"sender","type":"address","indexed":true,"internalType":"address"},{"name":"receiver","type":"address","indexed":true,"internalType":"address"},{"name":"amount","type":"uint256","indexed":false,"internalType":"uint256"}],"anonymous":false},{"type":"event","name":"TokenMint","inputs":[{"name":"sender","type":"address","indexed":true,"internalType":"address"},{"name":"to","type":"address","indexed":true,"internalType":"address"},{"name":"amount","type":"uint256","indexed":false,"internalType":"uint256"}],"anonymous":false},{"type":"event","name":"Transfer","inputs":[{"name":"sender","type":"address","indexed":true,"internalType":"address"},{"name":"receiver","type":"address","indexed":true,"internalType":"address"},{"name":"amount","type":"uint256","indexed":false,"internalType":"uint256"}],"anonymous":false},{"type":"error","name":"BulbToken__AllowanceDecreaseFailed","inputs":[]},{"type":"error","name":"BulbToken__AllowanceExceeded","inputs":[]},{"type":"error","name":"BulbToken__InsufficientBalance","inputs":[]},{"type":"error","name":"BulbToken__InvalidSpender","inputs":[]},{"type":"error","name":"BulbToken__MintingNotAuthorized","inputs":[]},{"type":"error","name":"BulbToken__NotHolding","inputs":[]}],"bytecode":{"object":"0x60a06040526c01431e0fae6d7217caa00000005f5534801561001f575f5ffd5b503373ffffffffffffffffffffffffffffffffffffffff1660808173ffffffffffffffffffffffffffffffffffffffff16815250506100626100aa60201b60201c565b60015f60805173ffffffffffffffffffffffffffffffffffffffff1673ffffffffffffffffffffffffffffffffffffffff1681526020019081526020015f20819055506100b2565b5f5f54905090565b6080516118636100d15f395f8181610a7e01526113e701526118635ff3fe608060405234801561000f575f5ffd5b5060043610610109575f3560e01c806342966c68116100a0578063a457c2d71161006f578063a457c2d7146102cb578063a9059cbb146102fb578063dba6335f1461032b578063dd62ed3e14610349578063e7394daf1461037957610109565b806342966c68146102435780636a74a0fc1461025f57806370a082311461027d57806395d89b41146102ad57610109565b806323b872dd116100dc57806323b872dd146101a9578063313ce567146101d957806339509351146101f757806340c10f191461022757610109565b806306fdde031461010d578063095ea7b31461012b57806318160ddd1461015b5780631f78de4f14610179575b5f5ffd5b6101156103a9565b6040516101229190611510565b60405180910390f35b610145600480360381019061014091906115c1565b6103e6565b6040516101529190611619565b60405180910390f35b610163610538565b6040516101709190611641565b60405180910390f35b610193600480360381019061018e919061165a565b610540565b6040516101a09190611619565b60405180910390f35b6101c360048036038101906101be9190611685565b61055d565b6040516101d09190611619565b60405180910390f35b6101e1610973565b6040516101ee91906116f0565b60405180910390f35b610211600480360381019061020c91906115c1565b61097b565b60405161021e9190611619565b60405180910390f35b610241600480360381019061023c91906115c1565b610a7c565b005b61025d60048036038101906102589190611709565b610c6e565b005b610267610f2a565b6040516102749190611641565b60405180910390f35b6102976004803603810190610292919061165a565b610f2f565b6040516102a49190611641565b60405180910390f35b6102b5610f75565b6040516102c29190611510565b60405180910390f35b6102e560048036038101906102e091906115c1565b610fb2565b6040516102f29190611619565b60405180910390f35b610315600480360381019061031091906115c1565b611165565b6040516103229190611619565b60405180910390f35b6103336113e5565b6040516103409190611743565b60405180910390f35b610363600480360381019061035e919061175c565b611409565b6040516103709190611641565b60405180910390f35b610393600480360381019061038e919061165a565b61148b565b6040516103a09190611641565b60405180910390f35b60606040518060400160405280600481526020017f42756c6200000000000000000000000000000000000000000000000000000000815250905090565b5f5f73ffffffffffffffffffffffffffffffffffffffff168373ffffffffffffffffffffffffffffffffffffffff160361044c576040517f1dd7c7c800000000000000000000000000000000000000000000000000000000815260040160405180910390fd5b8160035f3373ffffffffffffffffffffffffffffffffffffffff1673ffffffffffffffffffffffffffffffffffffffff1681526020019081526020015f205f8573ffffffffffffffffffffffffffffffffffffffff1673ffffffffffffffffffffffffffffffffffffffff1681526020019081526020015f20819055508273ffffffffffffffffffffffffffffffffffffffff163373ffffffffffffffffffffffffffffffffffffffff167f8c5be1e5ebec7d5bd14f71427d1e84f3dd0314c0f7b2291e5b200ac8c7c3b925846040516105269190611641565b60405180910390a36001905092915050565b5f5f54905090565b6002602052805f5260405f205f915054906101000a900460ff1681565b5f8160015f8673ffffffffffffffffffffffffffffffffffffffff1673ffffffffffffffffffffffffffffffffffffffff1681526020019081526020015f205410156105d5576040517f9cf29c8800000000000000000000000000000000000000000000000000000000815260040160405180910390fd5b8160035f8673ffffffffffffffffffffffffffffffffffffffff1673ffffffffffffffffffffffffffffffffffffffff1681526020019081526020015f205f3373ffffffffffffffffffffffffffffffffffffffff1673ffffffffffffffffffffffffffffffffffffffff1681526020019081526020015f20541015610687576040517fcac1d4ee00000000000000000000000000000000000000000000000000000000815260040160405180910390fd5b8160035f8673ffffffffffffffffffffffffffffffffffffffff1673ffffffffffffffffffffffffffffffffffffffff1681526020019081526020015f205f3373ffffffffffffffffffffffffffffffffffffffff1673ffffffffffffffffffffffffffffffffffffffff1681526020019081526020015f205f82825461070e91906117c7565b925050819055508160015f8673ffffffffffffffffffffffffffffffffffffffff1673ffffffffffffffffffffffffffffffffffffffff1681526020019081526020015f205f82825461076191906117c7565b925050819055508160015f8573ffffffffffffffffffffffffffffffffffffffff1673ffffffffffffffffffffffffffffffffffffffff1681526020019081526020015f205f8282546107b491906117fa565b92505081905550600160025f8573ffffffffffffffffffffffffffffffffffffffff1673ffffffffffffffffffffffffffffffffffffffff1681526020019081526020015f205f6101000a81548160ff0219169083151502179055505f60015f8673ffffffffffffffffffffffffffffffffffffffff1673ffffffffffffffffffffffffffffffffffffffff1681526020019081526020015f2054036108ad575f60025f8673ffffffffffffffffffffffffffffffffffffffff1673ffffffffffffffffffffffffffffffffffffffff1681526020019081526020015f205f6101000a81548160ff021916908315150217905550610903565b600160025f8673ffffffffffffffffffffffffffffffffffffffff1673ffffffffffffffffffffffffffffffffffffffff1681526020019081526020015f205f6101000a81548160ff0219169083151502179055505b8273ffffffffffffffffffffffffffffffffffffffff168473ffffffffffffffffffffffffffffffffffffffff167fddf252ad1be2c89b69c2b068fc378daa952ba7f163c4a11628f55a4df523b3ef846040516109609190611641565b60405180910390a3600190509392505050565b5f6012905090565b5f5f8260035f3373ffffffffffffffffffffffffffffffffffffffff1673ffffffffffffffffffffffffffffffffffffffff1681526020019081526020015f205f8673ffffffffffffffffffffffffffffffffffffffff1673ffffffffffffffffffffffffffffffffffffffff1681526020019081526020015f205f828254610a0491906117fa565b92505081905590508373ffffffffffffffffffffffffffffffffffffffff163373ffffffffffffffffffffffffffffffffffffffff167f8c5be1e5ebec7d5bd14f71427d1e84f3dd0314c0f7b2291e5b200ac8c7c3b92583604051610a699190611641565b60405180910390a3600191505092915050565b7f000000000000000000000000000000000000000000000000000000000000000073ffffffffffffffffffffffffffffffffffffffff163373ffffffffffffffffffffffffffffffffffffffff1614610b01576040517fbcdcb57f00000000000000000000000000000000000000000000000000000000815260040160405180910390fd5b8060015f8473ffffffffffffffffffffffffffffffffffffffff1673ffffffffffffffffffffffffffffffffffffffff1681526020019081526020015f205f828254610b4d91906117fa565b92505081905550805f5f828254610b6491906117fa565b925050819055505f60015f8473ffffffffffffffffffffffffffffffffffffffff1673ffffffffffffffffffffffffffffffffffffffff1681526020019081526020015f205414610c0557600160025f8473ffffffffffffffffffffffffffffffffffffffff1673ffffffffffffffffffffffffffffffffffffffff1681526020019081526020015f205f6101000a81548160ff0219169083151502179055505b8173ffffffffffffffffffffffffffffffffffffffff163373ffffffffffffffffffffffffffffffffffffffff167f93fa088ec3b37b93af5deae7b6bc55626e2c2dc086b1184bd2fefc28566d639283604051610c629190611641565b60405180910390a35050565b60025f3373ffffffffffffffffffffffffffffffffffffffff1673ffffffffffffffffffffffffffffffffffffffff1681526020019081526020015f205f9054906101000a900460ff16610cee576040517ff0b8843900000000000000000000000000000000000000000000000000000000815260040160405180910390fd5b8060015f3373ffffffffffffffffffffffffffffffffffffffff1673ffffffffffffffffffffffffffffffffffffffff1681526020019081526020015f20541015610d65576040517f9cf29c8800000000000000000000000000000000000000000000000000000000815260040160405180910390fd5b8060015f3373ffffffffffffffffffffffffffffffffffffffff1673ffffffffffffffffffffffffffffffffffffffff1681526020019081526020015f205f828254610db191906117c7565b92505081905550805f5f828254610dc891906117c7565b925050819055505f60015f3373ffffffffffffffffffffffffffffffffffffffff1673ffffffffffffffffffffffffffffffffffffffff1681526020019081526020015f205403610e6c575f60025f3373ffffffffffffffffffffffffffffffffffffffff1673ffffffffffffffffffffffffffffffffffffffff1681526020019081526020015f205f6101000a81548160ff021916908315150217905550610ec2565b600160025f3373ffffffffffffffffffffffffffffffffffffffff1673ffffffffffffffffffffffffffffffffffffffff1681526020019081526020015f205f6101000a81548160ff0219169083151502179055505b5f73ffffffffffffffffffffffffffffffffffffffff163373ffffffffffffffffffffffffffffffffffffffff167fddf252ad1be2c89b69c2b068fc378daa952ba7f163c4a11628f55a4df523b3ef83604051610f1f9190611641565b60405180910390a350565b5f5481565b5f60015f8373ffffffffffffffffffffffffffffffffffffffff1673ffffffffffffffffffffffffffffffffffffffff1681526020019081526020015f20549050919050565b60606040518060400160405280600381526020017f4255420000000000000000000000000000000000000000000000000000000000815250905090565b5f8160035f3373ffffffffffffffffffffffffffffffffffffffff1673ffffffffffffffffffffffffffffffffffffffff1681526020019081526020015f205f8573ffffffffffffffffffffffffffffffffffffffff1673ffffffffffffffffffffffffffffffffffffffff1681526020019081526020015f20541015611065576040517fe8f0b28100000000000000000000000000000000000000000000000000000000815260040160405180910390fd5b5f8260035f3373ffffffffffffffffffffffffffffffffffffffff1673ffffffffffffffffffffffffffffffffffffffff1681526020019081526020015f205f8673ffffffffffffffffffffffffffffffffffffffff1673ffffffffffffffffffffffffffffffffffffffff1681526020019081526020015f205f8282546110ed91906117c7565b92505081905590508373ffffffffffffffffffffffffffffffffffffffff163373ffffffffffffffffffffffffffffffffffffffff167f8c5be1e5ebec7d5bd14f71427d1e84f3dd0314c0f7b2291e5b200ac8c7c3b925836040516111529190611641565b60405180910390a3600191505092915050565b5f8160015f3373ffffffffffffffffffffffffffffffffffffffff1673ffffffffffffffffffffffffffffffffffffffff1681526020019081526020015f205410156111dd576040517f9cf29c8800000000000000000000000000000000000000000000000000000000815260040160405180910390fd5b8160015f3373ffffffffffffffffffffffffffffffffffffffff1673ffffffffffffffffffffffffffffffffffffffff1681526020019081526020015f205f82825461122991906117c7565b925050819055508160015f8573ffffffffffffffffffffffffffffffffffffffff1673ffffffffffffffffffffffffffffffffffffffff1681526020019081526020015f205f82825461127c91906117fa565b925050819055505f60015f3373ffffffffffffffffffffffffffffffffffffffff1673ffffffffffffffffffffffffffffffffffffffff1681526020019081526020015f205403611320575f60025f3373ffffffffffffffffffffffffffffffffffffffff1673ffffffffffffffffffffffffffffffffffffffff1681526020019081526020015f205f6101000a81548160ff021916908315150217905550611376565b600160025f3373ffffffffffffffffffffffffffffffffffffffff1673ffffffffffffffffffffffffffffffffffffffff1681526020019081526020015f205f6101000a81548160ff0219169083151502179055505b8273ffffffffffffffffffffffffffffffffffffffff163373ffffffffffffffffffffffffffffffffffffffff167fddf252ad1be2c89b69c2b068fc378daa952ba7f163c4a11628f55a4df523b3ef846040516113d39190611641565b60405180910390a36001905092915050565b7f000000000000000000000000000000000000000000000000000000000000000081565b5f60035f8473ffffffffffffffffffffffffffffffffffffffff1673ffffffffffffffffffffffffffffffffffffffff1681526020019081526020015f205f8373ffffffffffffffffffffffffffffffffffffffff1673ffffffffffffffffffffffffffffffffffffffff1681526020019081526020015f2054905092915050565b6001602052805f5260405f205f915090505481565b5f81519050919050565b5f82825260208201905092915050565b8281835e5f83830152505050565b5f601f19601f8301169050919050565b5f6114e2826114a0565b6114ec81856114aa565b93506114fc8185602086016114ba565b611505816114c8565b840191505092915050565b5f6020820190508181035f83015261152881846114d8565b905092915050565b5f5ffd5b5f73ffffffffffffffffffffffffffffffffffffffff82169050919050565b5f61155d82611534565b9050919050565b61156d81611553565b8114611577575f5ffd5b50565b5f8135905061158881611564565b92915050565b5f819050919050565b6115a08161158e565b81146115aa575f5ffd5b50565b5f813590506115bb81611597565b92915050565b5f5f604083850312156115d7576115d6611530565b5b5f6115e48582860161157a565b92505060206115f5858286016115ad565b9150509250929050565b5f8115159050919050565b611613816115ff565b82525050565b5f60208201905061162c5f83018461160a565b92915050565b61163b8161158e565b82525050565b5f6020820190506116545f830184611632565b92915050565b5f6020828403121561166f5761166e611530565b5b5f61167c8482850161157a565b91505092915050565b5f5f5f6060848603121561169c5761169b611530565b5b5f6116a98682870161157a565b93505060206116ba8682870161157a565b92505060406116cb868287016115ad565b9150509250925092565b5f60ff82169050919050565b6116ea816116d5565b82525050565b5f6020820190506117035f8301846116e1565b92915050565b5f6020828403121561171e5761171d611530565b5b5f61172b848285016115ad565b91505092915050565b61173d81611553565b82525050565b5f6020820190506117565f830184611734565b92915050565b5f5f6040838503121561177257611771611530565b5b5f61177f8582860161157a565b92505060206117908582860161157a565b9150509250929050565b7f4e487b71000000000000000000000000000000000000000000000000000000005f52601160045260245ffd5b5f6117d18261158e565b91506117dc8361158e565b92508282039050818111156117f4576117f361179a565b5b92915050565b5f6118048261158e565b915061180f8361158e565b92508282019050808211156118275761182661179a565b5b9291505056fea2646970667358221220c708f29d61c17f7cd06d7fc5527ee6535d53ea7fb0e32c3c26bfb434e758803364736f6c634300081e0033","linkReferences":{}},"methodIdentifiers":{"allowance(address,address)":"dd62ed3e","approve(address,uint256)":"095ea7b3","balanceOf(address)":"70a08231","burn(uint256)":"42966c68","decimals()":"313ce567","decreaseAllowance(address,uint256)":"a457c2d7","i_owner()":"dba6335f","increaseAllowance(address,uint256)":"39509351","mint(address,uint256)":"40c10f19","name()":"06fdde03","s_balance(address)":"e7394daf","s_isHolder(address)":"1f78de4f","s_totalSupply()":"6a74a0fc","symbol()":"95d89b41","totalSupply()":"18160ddd","transfer(address,uint256)":"a9059cbb","transferFrom(address,address,uint256)":"23b872dd"},"id":21}