{"abi":[{"type":"constructor","inputs":[],"stateMutability":"nonpayable"},{"type":"function","name":"allowance","inputs":[{"name":"owner","type":"address","internalType":"address"},{"name":"spender","type":"address","internalType":"address"}],"outputs":[{"name":"","type":"uint256","internalType":"uint256"}],"stateMutability":"view"},{"type":"function","name":"approve","inputs":[{"name":"spender","type":"address","internalType":"address"},{"name":"value","type":"uint256","internalType":"uint256"}],"outputs":[{"name":"","type":"bool","internalType":"bool"}],"stateMutability":"nonpayable"},{"type":"function","name":"balanceOf","inputs":[{"name":"owner","type":"address","internalType":"address"}],"outputs":[{"name":"","type":"uint256","internalType":"uint256"}],"stateMutability":"view"},{"type":"function","name":"decials","inputs":[],"outputs":[{"name":"","type":"uint8","internalType":"uint8"}],"stateMutability":"pure"},{"type":"function","name":"i_owner","inputs":[],"outputs":[{"name":"","type":"address","internalType":"address"}],"stateMutability":"view"},{"type":"function","name":"name","inputs":[],"outputs":[{"name":"","type":"string","internalType":"string"}],"stateMutability":"pure"},{"type":"function","name":"s_allowance","inputs":[{"name":"","type":"address","internalType":"address"},{"name":"","type":"address","internalType":"address"}],"outputs":[{"name":"","type":"uint256","internalType":"uint256"}],"stateMutability":"view"},{"type":"function","name":"s_balance","inputs":[{"name":"","type":"address","internalType":"address"}],"outputs":[{"name":"","type":"uint256","internalType":"uint256"}],"stateMutability":"view"},{"type":"function","name":"s_totalSupply","inputs":[],"outputs":[{"name":"","type":"uint256","internalType":"uint256"}],"stateMutability":"view"},{"type":"function","name":"symbol","inputs":[],"outputs":[{"name":"","type":"string","internalType":"string"}],"stateMutability":"pure"},{"type":"function","name":"totalSupply","inputs":[],"outputs":[{"name":"","type":"uint256","internalType":"uint256"}],"stateMutability":"view"},{"type":"function","name":"transfer","inputs":[{"name":"to","type":"address","internalType":"address"},{"name":"value","type":"uint256","internalType":"uint256"}],"outputs":[{"name":"","type":"bool","internalType":"bool"}],"stateMutability":"nonpayable"},{"type":"function","name":"transferFrom","inputs":[{"name":"from","type":"address","internalType":"address"},{"name":"to","type":"address","internalType":"address"},{"name":"value","type":"uint256","internalType":"uint256"}],"outputs":[{"name":"","type":"bool","internalType":"bool"}],"stateMutability":"nonpayable"},{"type":"event","name":"Approval","inputs":[{"name":"sender","type":"address","indexed":true,"internalType":"address"},{"name":"spender","type":"address","indexed":true,"internalType":"address"},{"name":"amount","type":"uint256","indexed":false,"internalType":"uint256"}],"anonymous":false},{"type":"event","name":"Transfer","inputs":[{"name":"sender","type":"address","indexed":true,"internalType":"address"},{"name":"to","type":"address","indexed":true,"internalType":"address"},{"name":"amount","type":"uint256","indexed":false,"internalType":"uint256"}],"anonymous":false},{"type":"error","name":"Token__AllowanceExceeded","inputs":[]},{"type":"error","name":"Token__LowBalance","inputs":[]}],"bytecode":{"object":"0x60a060405264174876e8005f553480156016575f5ffd5b503373ffffffffffffffffffffffffffffffffffffffff1660808173ffffffffffffffffffffffffffffffffffffffff16815250506057609e60201b60201c565b60015f60805173ffffffffffffffffffffffffffffffffffffffff1673ffffffffffffffffffffffffffffffffffffffff1681526020019081526020015f208190555060a6565b5f5f54905090565b608051610d656100be5f395f6109140152610d655ff3fe608060405234801561000f575f5ffd5b50600436106100cd575f3560e01c80636a74a0fc1161008a578063a9059cbb11610064578063a9059cbb14610227578063dba6335f14610257578063dd62ed3e14610275578063e7394daf146102a5576100cd565b80636a74a0fc146101bb57806370a08231146101d957806395d89b4114610209576100cd565b806306fdde03146100d1578063095ea7b3146100ef57806318160ddd1461011f57806323b872dd1461013d578063387c8e6d1461016d5780635a582ad41461019d575b5f5ffd5b6100d96102d5565b6040516100e69190610a3d565b60405180910390f35b61010960048036038101906101049190610aee565b610312565b6040516101169190610b46565b60405180910390f35b6101276103ff565b6040516101349190610b6e565b60405180910390f35b61015760048036038101906101529190610b87565b610407565b6040516101649190610b46565b60405180910390f35b61018760048036038101906101829190610bd7565b6106d5565b6040516101949190610b6e565b60405180910390f35b6101a56106f5565b6040516101b29190610c30565b60405180910390f35b6101c36106fd565b6040516101d09190610b6e565b60405180910390f35b6101f360048036038101906101ee9190610c49565b610702565b6040516102009190610b6e565b60405180910390f35b610211610748565b60405161021e9190610a3d565b60405180910390f35b610241600480360381019061023c9190610aee565b610785565b60405161024e9190610b46565b60405180910390f35b61025f610912565b60405161026c9190610c83565b60405180910390f35b61028f600480360381019061028a9190610bd7565b610936565b60405161029c9190610b6e565b60405180910390f35b6102bf60048036038101906102ba9190610c49565b6109b8565b6040516102cc9190610b6e565b60405180910390f35b60606040518060400160405280600481526020017f42756c6200000000000000000000000000000000000000000000000000000000815250905090565b5f8160025f3373ffffffffffffffffffffffffffffffffffffffff1673ffffffffffffffffffffffffffffffffffffffff1681526020019081526020015f205f8573ffffffffffffffffffffffffffffffffffffffff1673ffffffffffffffffffffffffffffffffffffffff1681526020019081526020015f20819055508273ffffffffffffffffffffffffffffffffffffffff163373ffffffffffffffffffffffffffffffffffffffff167f8c5be1e5ebec7d5bd14f71427d1e84f3dd0314c0f7b2291e5b200ac8c7c3b925846040516103ed9190610b6e565b60405180910390a36001905092915050565b5f5f54905090565b5f8160015f3373ffffffffffffffffffffffffffffffffffffffff1673ffffffffffffffffffffffffffffffffffffffff1681526020019081526020015f2054101561047f576040517f30b126a900000000000000000000000000000000000000000000000000000000815260040160405180910390fd5b8160025f8673ffffffffffffffffffffffffffffffffffffffff1673ffffffffffffffffffffffffffffffffffffffff1681526020019081526020015f205f3373ffffffffffffffffffffffffffffffffffffffff1673ffffffffffffffffffffffffffffffffffffffff1681526020019081526020015f20541015610531576040517f7b62d3b800000000000000000000000000000000000000000000000000000000815260040160405180910390fd5b8160025f8673ffffffffffffffffffffffffffffffffffffffff1673ffffffffffffffffffffffffffffffffffffffff1681526020019081526020015f205f3373ffffffffffffffffffffffffffffffffffffffff1673ffffffffffffffffffffffffffffffffffffffff1681526020019081526020015f205f8282546105b89190610cc9565b925050819055508160015f8673ffffffffffffffffffffffffffffffffffffffff1673ffffffffffffffffffffffffffffffffffffffff1681526020019081526020015f205f82825461060b9190610cc9565b925050819055508160015f8573ffffffffffffffffffffffffffffffffffffffff1673ffffffffffffffffffffffffffffffffffffffff1681526020019081526020015f205f82825461065e9190610cfc565b925050819055508273ffffffffffffffffffffffffffffffffffffffff168473ffffffffffffffffffffffffffffffffffffffff167fddf252ad1be2c89b69c2b068fc378daa952ba7f163c4a11628f55a4df523b3ef846040516106c29190610b6e565b60405180910390a3600190509392505050565b6002602052815f5260405f20602052805f5260405f205f91509150505481565b5f6012905090565b5f5481565b5f60015f8373ffffffffffffffffffffffffffffffffffffffff1673ffffffffffffffffffffffffffffffffffffffff1681526020019081526020015f20549050919050565b60606040518060400160405280600381526020017f4255420000000000000000000000000000000000000000000000000000000000815250905090565b5f8160015f3373ffffffffffffffffffffffffffffffffffffffff1673ffffffffffffffffffffffffffffffffffffffff1681526020019081526020015f205410156107fd576040517f30b126a900000000000000000000000000000000000000000000000000000000815260040160405180910390fd5b8160015f3373ffffffffffffffffffffffffffffffffffffffff1673ffffffffffffffffffffffffffffffffffffffff1681526020019081526020015f205f8282546108499190610cc9565b925050819055508160015f8573ffffffffffffffffffffffffffffffffffffffff1673ffffffffffffffffffffffffffffffffffffffff1681526020019081526020015f205f82825461089c9190610cfc565b925050819055508273ffffffffffffffffffffffffffffffffffffffff163373ffffffffffffffffffffffffffffffffffffffff167fddf252ad1be2c89b69c2b068fc378daa952ba7f163c4a11628f55a4df523b3ef846040516109009190610b6e565b60405180910390a36001905092915050565b7f000000000000000000000000000000000000000000000000000000000000000081565b5f60025f8473ffffffffffffffffffffffffffffffffffffffff1673ffffffffffffffffffffffffffffffffffffffff1681526020019081526020015f205f8373ffffffffffffffffffffffffffffffffffffffff1673ffffffffffffffffffffffffffffffffffffffff1681526020019081526020015f2054905092915050565b6001602052805f5260405f205f915090505481565b5f81519050919050565b5f82825260208201905092915050565b8281835e5f83830152505050565b5f601f19601f8301169050919050565b5f610a0f826109cd565b610a1981856109d7565b9350610a298185602086016109e7565b610a32816109f5565b840191505092915050565b5f6020820190508181035f830152610a558184610a05565b905092915050565b5f5ffd5b5f73ffffffffffffffffffffffffffffffffffffffff82169050919050565b5f610a8a82610a61565b9050919050565b610a9a81610a80565b8114610aa4575f5ffd5b50565b5f81359050610ab581610a91565b92915050565b5f819050919050565b610acd81610abb565b8114610ad7575f5ffd5b50565b5f81359050610ae881610ac4565b92915050565b5f5f60408385031215610b0457610b03610a5d565b5b5f610b1185828601610aa7565b9250506020610b2285828601610ada565b9150509250929050565b5f8115159050919050565b610b4081610b2c565b82525050565b5f602082019050610b595f830184610b37565b92915050565b610b6881610abb565b82525050565b5f602082019050610b815f830184610b5f565b92915050565b5f5f5f60608486031215610b9e57610b9d610a5d565b5b5f610bab86828701610aa7565b9350506020610bbc86828701610aa7565b9250506040610bcd86828701610ada565b9150509250925092565b5f5f60408385031215610bed57610bec610a5d565b5b5f610bfa85828601610aa7565b9250506020610c0b85828601610aa7565b9150509250929050565b5f60ff82169050919050565b610c2a81610c15565b82525050565b5f602082019050610c435f830184610c21565b92915050565b5f60208284031215610c5e57610c5d610a5d565b5b5f610c6b84828501610aa7565b91505092915050565b610c7d81610a80565b82525050565b5f602082019050610c965f830184610c74565b92915050565b7f4e487b71000000000000000000000000000000000000000000000000000000005f52601160045260245ffd5b5f610cd382610abb565b9150610cde83610abb565b9250828203905081811115610cf657610cf5610c9c565b5b92915050565b5f610d0682610abb565b9150610d1183610abb565b9250828201905080821115610d2957610d28610c9c565b5b9291505056fea264697066735822122043646dfb6512aee32016c1990d7de682b9cf176b7842049d7d5a3d0ec336640b64736f6c634300081e0033","linkReferences":{}},"methodIdentifiers":{"allowance(address,address)":"dd62ed3e","approve(address,uint256)":"095ea7b3","balanceOf(address)":"70a08231","decials()":"5a582ad4","i_owner()":"dba6335f","name()":"06fdde03","s_allowance(address,address)":"387c8e6d","s_balance(address)":"e7394daf","s_totalSupply()":"6a74a0fc","symbol()":"95d89b41","totalSupply()":"18160ddd","transfer(address,uint256)":"a9059cbb","transferFrom(address,address,uint256)":"23b872dd"},"id":0}