{"abi":[{"type":"constructor","inputs":[],"stateMutability":"nonpayable"},{"type":"function","name":"allowance","inputs":[{"name":"from","type":"address","internalType":"address"},{"name":"spender","type":"address","internalType":"address"}],"outputs":[{"name":"","type":"uint256","internalType":"uint256"}],"stateMutability":"view"},{"type":"function","name":"approve","inputs":[{"name":"spender","type":"address","internalType":"address"},{"name":"value","type":"uint256","internalType":"uint256"}],"outputs":[{"name":"","type":"bool","internalType":"bool"}],"stateMutability":"nonpayable"},{"type":"function","name":"balanceOf","inputs":[{"name":"owner","type":"address","internalType":"address"}],"outputs":[{"name":"","type":"uint256","internalType":"uint256"}],"stateMutability":"view"},{"type":"function","name":"burn","inputs":[{"name":"value","type":"uint256","internalType":"uint256"}],"outputs":[],"stateMutability":"nonpayable"},{"type":"function","name":"burnFrom","inputs":[{"name":"account","type":"address","internalType":"address"},{"name":"value","type":"uint256","internalType":"uint256"}],"outputs":[],"stateMutability":"nonpayable"},{"type":"function","name":"decimals","inputs":[],"outputs":[{"name":"","type":"uint8","internalType":"uint8"}],"stateMutability":"pure"},{"type":"function","name":"decreaseAllowance","inputs":[{"name":"spender","type":"address","internalType":"address"},{"name":"subtractedValue","type":"uint256","internalType":"uint256"}],"outputs":[{"name":"","type":"bool","internalType":"bool"}],"stateMutability":"nonpayable"},{"type":"function","name":"getListOfHolders","inputs":[{"name":"holder","type":"address","internalType":"address"}],"outputs":[{"name":"","type":"bool","internalType":"bool"}],"stateMutability":"view"},{"type":"function","name":"getOwner","inputs":[],"outputs":[{"name":"","type":"address","internalType":"address"}],"stateMutability":"view"},{"type":"function","name":"i_owner","inputs":[],"outputs":[{"name":"","type":"address","internalType":"address"}],"stateMutability":"view"},{"type":"function","name":"increaseAllowance","inputs":[{"name":"spender","type":"address","internalType":"address"},{"name":"addedValue","type":"uint256","internalType":"uint256"}],"outputs":[{"name":"","type":"bool","internalType":"bool"}],"stateMutability":"nonpayable"},{"type":"function","name":"mint","inputs":[{"name":"to","type":"address","internalType":"address"},{"name":"value","type":"uint256","internalType":"uint256"}],"outputs":[],"stateMutability":"nonpayable"},{"type":"function","name":"name","inputs":[],"outputs":[{"name":"","type":"string","internalType":"string"}],"stateMutability":"pure"},{"type":"function","name":"pause","inputs":[],"outputs":[],"stateMutability":"nonpayable"},{"type":"function","name":"s_allowance","inputs":[{"name":"","type":"address","internalType":"address"},{"name":"","type":"address","internalType":"address"}],"outputs":[{"name":"","type":"uint256","internalType":"uint256"}],"stateMutability":"view"},{"type":"function","name":"s_balance","inputs":[{"name":"","type":"address","internalType":"address"}],"outputs":[{"name":"","type":"uint256","internalType":"uint256"}],"stateMutability":"view"},{"type":"function","name":"s_isHolder","inputs":[{"name":"","type":"address","internalType":"address"}],"outputs":[{"name":"","type":"bool","internalType":"bool"}],"stateMutability":"view"},{"type":"function","name":"s_pause","inputs":[],"outputs":[{"name":"","type":"bool","internalType":"bool"}],"stateMutability":"view"},{"type":"function","name":"s_totalSupply","inputs":[],"outputs":[{"name":"","type":"uint256","internalType":"uint256"}],"stateMutability":"view"},{"type":"function","name":"symbol","inputs":[],"outputs":[{"name":"","type":"string","internalType":"string"}],"stateMutability":"pure"},{"type":"function","name":"totalSupply","inputs":[],"outputs":[{"name":"","type":"uint256","internalType":"uint256"}],"stateMutability":"view"},{"type":"function","name":"transfer","inputs":[{"name":"to","type":"address","internalType":"address"},{"name":"value","type":"uint256","internalType":"uint256"}],"outputs":[{"name":"","type":"bool","internalType":"bool"}],"stateMutability":"nonpayable"},{"type":"function","name":"transferFrom","inputs":[{"name":"from","type":"address","internalType":"address"},{"name":"to","type":"address","internalType":"address"},{"name":"value","type":"uint256","internalType":"uint256"}],"outputs":[{"name":"","type":"bool","internalType":"bool"}],"stateMutability":"nonpayable"},{"type":"function","name":"unpause","inputs":[],"outputs":[],"stateMutability":"nonpayable"},{"type":"event","name":"Approval","inputs":[{"name":"sender","type":"address","indexed":true,"internalType":"address"},{"name":"receiver","type":"address","indexed":true,"internalType":"address"},{"name":"amount","type":"uint256","indexed":false,"internalType":"uint256"}],"anonymous":false},{"type":"event","name":"Paused","inputs":[{"name":"sender","type":"address","indexed":true,"internalType":"address"}],"anonymous":false},{"type":"event","name":"TokenBurn","inputs":[{"name":"sender","type":"address","indexed":true,"internalType":"address"},{"name":"amount","type":"uint256","indexed":false,"internalType":"uint256"}],"anonymous":false},{"type":"event","name":"TokenMint","inputs":[{"name":"sender","type":"address","indexed":true,"internalType":"address"},{"name":"receiver","type":"address","indexed":true,"internalType":"address"},{"name":"amount","type":"uint256","indexed":false,"internalType":"uint256"}],"anonymous":false},{"type":"event","name":"Transfer","inputs":[{"name":"sender","type":"address","indexed":true,"internalType":"address"},{"name":"receiver","type":"address","indexed":true,"internalType":"address"},{"name":"amount","type":"uint256","indexed":false,"internalType":"uint256"}],"anonymous":false},{"type":"event","name":"Unpaused","inputs":[{"name":"sender","type":"address","indexed":true,"internalType":"address"}],"anonymous":false},{"type":"error","name":"Verifier__AllowanceExceeded","inputs":[]},{"type":"error","name":"Verifier__ApproveToInvalidAddress","inputs":[]},{"type":"error","name":"Verifier__ContractPaused","inputs":[]},{"type":"error","name":"Verifier__InsufficientBalance","inputs":[]},{"type":"error","name":"Verifier__InvalidAddress","inputs":[]},{"type":"error","name":"Verifier__IsPaused","inputs":[]},{"type":"error","name":"Verifier__IsUnpaused","inputs":[]},{"type":"error","name":"Verifier__MintingToInvalidAddress","inputs":[]},{"type":"error","name":"Verifier__MintingUnauthorized","inputs":[]},{"type":"error","name":"Verifier__NoTokenBurned","inputs":[]},{"type":"error","name":"Verifier__NoTokenMinted","inputs":[]},{"type":"error","name":"Verifier__NotAllowed","inputs":[]}],"bytecode":{"object":"0x60a06040526a52b7d2dcc80cd2e400000060015534801561001e575f5ffd5b503373ffffffffffffffffffffffffffffffffffffffff1660808173ffffffffffffffffffffffffffffffffffffffff16815250506100616100a960201b60201c565b60025f60805173ffffffffffffffffffffffffffffffffffffffff1673ffffffffffffffffffffffffffffffffffffffff1681526020019081526020015f20819055506100b2565b5f600154905090565b6080516124c16100e65f395f8181610d1d01528181610e4a01528181611885015281816119b4015261204501526124c15ff3fe608060405234801561000f575f5ffd5b5060043610610156575f3560e01c80636a74a0fc116100c1578063a457c2d71161007a578063a457c2d7146103b4578063a9059cbb146103e4578063d276982c14610414578063dba6335f14610444578063dd62ed3e14610462578063e7394daf1461049257610156565b80636a74a0fc1461030457806370a082311461032257806379cc6790146103525780638456cb591461036e578063893d20e81461037857806395d89b411461039657610156565b8063333d6b8011610113578063333d6b8014610244578063387c8e6d1461026257806339509351146102925780633f4ba83a146102c257806340c10f19146102cc57806342966c68146102e857610156565b806306fdde031461015a578063095ea7b31461017857806318160ddd146101a85780631f78de4f146101c657806323b872dd146101f6578063313ce56714610226575b5f5ffd5b6101626104c2565b60405161016f919061216e565b60405180910390f35b610192600480360381019061018d919061221f565b6104ff565b60405161019f9190612277565b60405180910390f35b6101b0610651565b6040516101bd919061229f565b60405180910390f35b6101e060048036038101906101db91906122b8565b61065a565b6040516101ed9190612277565b60405180910390f35b610210600480360381019061020b91906122e3565b610677565b60405161021d9190612277565b60405180910390f35b61022e610b37565b60405161023b919061234e565b60405180910390f35b61024c610b3f565b6040516102599190612277565b60405180910390f35b61027c60048036038101906102779190612367565b610b50565b604051610289919061229f565b60405180910390f35b6102ac60048036038101906102a7919061221f565b610b70565b6040516102b99190612277565b60405180910390f35b6102ca610d1b565b005b6102e660048036038101906102e1919061221f565b610e48565b005b61030260048036038101906102fd91906123a5565b6110d9565b005b61030c6113e2565b604051610319919061229f565b60405180910390f35b61033c600480360381019061033791906122b8565b6113e8565b604051610349919061229f565b60405180910390f35b61036c6004803603810190610367919061221f565b61142e565b005b610376611883565b005b6103806119b1565b60405161038d91906123df565b60405180910390f35b61039e6119d8565b6040516103ab919061216e565b60405180910390f35b6103ce60048036038101906103c9919061221f565b611a15565b6040516103db9190612277565b60405180910390f35b6103fe60048036038101906103f9919061221f565b611c72565b60405161040b9190612277565b60405180910390f35b61042e600480360381019061042991906122b8565b611ff1565b60405161043b9190612277565b60405180910390f35b61044c612043565b60405161045991906123df565b60405180910390f35b61047c60048036038101906104779190612367565b612067565b604051610489919061229f565b60405180910390f35b6104ac60048036038101906104a791906122b8565b6120e9565b6040516104b9919061229f565b60405180910390f35b60606040518060400160405280600881526020017f5665726966696572000000000000000000000000000000000000000000000000815250905090565b5f5f73ffffffffffffffffffffffffffffffffffffffff168373ffffffffffffffffffffffffffffffffffffffff1603610565576040517f2562432600000000000000000000000000000000000000000000000000000000815260040160405180910390fd5b8160045f3373ffffffffffffffffffffffffffffffffffffffff1673ffffffffffffffffffffffffffffffffffffffff1681526020019081526020015f205f8573ffffffffffffffffffffffffffffffffffffffff1673ffffffffffffffffffffffffffffffffffffffff1681526020019081526020015f20819055508273ffffffffffffffffffffffffffffffffffffffff163373ffffffffffffffffffffffffffffffffffffffff167f8c5be1e5ebec7d5bd14f71427d1e84f3dd0314c0f7b2291e5b200ac8c7c3b9258460405161063f919061229f565b60405180910390a36001905092915050565b5f600154905090565b6003602052805f5260405f205f915054906101000a900460ff1681565b5f5f5f9054906101000a900460ff16156106bd576040517f294b956200000000000000000000000000000000000000000000000000000000815260040160405180910390fd5b5f73ffffffffffffffffffffffffffffffffffffffff168373ffffffffffffffffffffffffffffffffffffffff1603610722576040517f90470d6900000000000000000000000000000000000000000000000000000000815260040160405180910390fd5b8160025f8673ffffffffffffffffffffffffffffffffffffffff1673ffffffffffffffffffffffffffffffffffffffff1681526020019081526020015f20541015610799576040517f8d1bd26d00000000000000000000000000000000000000000000000000000000815260040160405180910390fd5b8160045f8673ffffffffffffffffffffffffffffffffffffffff1673ffffffffffffffffffffffffffffffffffffffff1681526020019081526020015f205f3373ffffffffffffffffffffffffffffffffffffffff1673ffffffffffffffffffffffffffffffffffffffff1681526020019081526020015f2054101561084b576040517f71d0cea800000000000000000000000000000000000000000000000000000000815260040160405180910390fd5b8160045f8673ffffffffffffffffffffffffffffffffffffffff1673ffffffffffffffffffffffffffffffffffffffff1681526020019081526020015f205f3373ffffffffffffffffffffffffffffffffffffffff1673ffffffffffffffffffffffffffffffffffffffff1681526020019081526020015f205f8282546108d29190612425565b925050819055508160025f8673ffffffffffffffffffffffffffffffffffffffff1673ffffffffffffffffffffffffffffffffffffffff1681526020019081526020015f205f8282546109259190612425565b925050819055508160025f8573ffffffffffffffffffffffffffffffffffffffff1673ffffffffffffffffffffffffffffffffffffffff1681526020019081526020015f205f8282546109789190612458565b92505081905550600160035f8573ffffffffffffffffffffffffffffffffffffffff1673ffffffffffffffffffffffffffffffffffffffff1681526020019081526020015f205f6101000a81548160ff0219169083151502179055505f60025f8673ffffffffffffffffffffffffffffffffffffffff1673ffffffffffffffffffffffffffffffffffffffff1681526020019081526020015f205403610a71575f60035f8673ffffffffffffffffffffffffffffffffffffffff1673ffffffffffffffffffffffffffffffffffffffff1681526020019081526020015f205f6101000a81548160ff021916908315150217905550610ac7565b600160035f8673ffffffffffffffffffffffffffffffffffffffff1673ffffffffffffffffffffffffffffffffffffffff1681526020019081526020015f205f6101000a81548160ff0219169083151502179055505b8273ffffffffffffffffffffffffffffffffffffffff168473ffffffffffffffffffffffffffffffffffffffff167fddf252ad1be2c89b69c2b068fc378daa952ba7f163c4a11628f55a4df523b3ef84604051610b24919061229f565b60405180910390a3600190509392505050565b5f6012905090565b5f5f9054906101000a900460ff1681565b6004602052815f5260405f20602052805f5260405f205f91509150505481565b5f5f5f9054906101000a900460ff1615610bb6576040517f294b956200000000000000000000000000000000000000000000000000000000815260040160405180910390fd5b5f73ffffffffffffffffffffffffffffffffffffffff168373ffffffffffffffffffffffffffffffffffffffff1603610c1b576040517f90470d6900000000000000000000000000000000000000000000000000000000815260040160405180910390fd5b5f8260045f3373ffffffffffffffffffffffffffffffffffffffff1673ffffffffffffffffffffffffffffffffffffffff1681526020019081526020015f205f8673ffffffffffffffffffffffffffffffffffffffff1673ffffffffffffffffffffffffffffffffffffffff1681526020019081526020015f205f828254610ca39190612458565b92505081905590508373ffffffffffffffffffffffffffffffffffffffff163373ffffffffffffffffffffffffffffffffffffffff167f8c5be1e5ebec7d5bd14f71427d1e84f3dd0314c0f7b2291e5b200ac8c7c3b92583604051610d08919061229f565b60405180910390a3600191505092915050565b7f000000000000000000000000000000000000000000000000000000000000000073ffffffffffffffffffffffffffffffffffffffff163373ffffffffffffffffffffffffffffffffffffffff1614610da0576040517f7e68d72400000000000000000000000000000000000000000000000000000000815260040160405180910390fd5b600115155f5f9054906101000a900460ff16151514610deb576040517f4071b23a00000000000000000000000000000000000000000000000000000000815260040160405180910390fd5b5f5f5f6101000a81548160ff0219169083151502179055503373ffffffffffffffffffffffffffffffffffffffff167f5db9ee0a495bf2e6ff9c91a7834c1ba4fdd244a5e8aa4e537bd38aeae4b073aa60405160405180910390a2565b7f000000000000000000000000000000000000000000000000000000000000000073ffffffffffffffffffffffffffffffffffffffff163373ffffffffffffffffffffffffffffffffffffffff1614610ecd576040517f47dc7d2d00000000000000000000000000000000000000000000000000000000815260040160405180910390fd5b5f5f9054906101000a900460ff1615610f12576040517f294b956200000000000000000000000000000000000000000000000000000000815260040160405180910390fd5b5f73ffffffffffffffffffffffffffffffffffffffff168273ffffffffffffffffffffffffffffffffffffffff1603610f77576040517f56fa693b00000000000000000000000000000000000000000000000000000000815260040160405180910390fd5b5f8103610fb0576040517f512ccf1900000000000000000000000000000000000000000000000000000000815260040160405180910390fd5b8060025f8473ffffffffffffffffffffffffffffffffffffffff1673ffffffffffffffffffffffffffffffffffffffff1681526020019081526020015f205f828254610ffc9190612458565b925050819055508060015f8282546110149190612458565b92505081905550600160035f8473ffffffffffffffffffffffffffffffffffffffff1673ffffffffffffffffffffffffffffffffffffffff1681526020019081526020015f205f6101000a81548160ff0219169083151502179055508173ffffffffffffffffffffffffffffffffffffffff165f73ffffffffffffffffffffffffffffffffffffffff167fddf252ad1be2c89b69c2b068fc378daa952ba7f163c4a11628f55a4df523b3ef836040516110cd919061229f565b60405180910390a35050565b5f5f9054906101000a900460ff161561111e576040517f294b956200000000000000000000000000000000000000000000000000000000815260040160405180910390fd5b5f8103611157576040517f0cc7393700000000000000000000000000000000000000000000000000000000815260040160405180910390fd5b8060025f3373ffffffffffffffffffffffffffffffffffffffff1673ffffffffffffffffffffffffffffffffffffffff1681526020019081526020015f205410156111ce576040517f8d1bd26d00000000000000000000000000000000000000000000000000000000815260040160405180910390fd5b8060025f3373ffffffffffffffffffffffffffffffffffffffff1673ffffffffffffffffffffffffffffffffffffffff1681526020019081526020015f205f82825461121a9190612425565b925050819055508060015f8282546112329190612425565b925050819055505f60025f3373ffffffffffffffffffffffffffffffffffffffff1673ffffffffffffffffffffffffffffffffffffffff1681526020019081526020015f2054036112d6575f60035f3373ffffffffffffffffffffffffffffffffffffffff1673ffffffffffffffffffffffffffffffffffffffff1681526020019081526020015f205f6101000a81548160ff02191690831515021790555061132c565b600160035f3373ffffffffffffffffffffffffffffffffffffffff1673ffffffffffffffffffffffffffffffffffffffff1681526020019081526020015f205f6101000a81548160ff0219169083151502179055505b3373ffffffffffffffffffffffffffffffffffffffff167fab85194d35c4ea153d0b51f3a304d1d22cb8023e499a6503fb6c28c5864ae90e82604051611372919061229f565b60405180910390a25f73ffffffffffffffffffffffffffffffffffffffff163373ffffffffffffffffffffffffffffffffffffffff167fddf252ad1be2c89b69c2b068fc378daa952ba7f163c4a11628f55a4df523b3ef836040516113d7919061229f565b60405180910390a350565b60015481565b5f60025f8373ffffffffffffffffffffffffffffffffffffffff1673ffffffffffffffffffffffffffffffffffffffff1681526020019081526020015f20549050919050565b5f5f9054906101000a900460ff1615611473576040517f294b956200000000000000000000000000000000000000000000000000000000815260040160405180910390fd5b5f81036114ac576040517f0cc7393700000000000000000000000000000000000000000000000000000000815260040160405180910390fd5b5f73ffffffffffffffffffffffffffffffffffffffff168273ffffffffffffffffffffffffffffffffffffffff1603611511576040517f90470d6900000000000000000000000000000000000000000000000000000000815260040160405180910390fd5b8060025f8473ffffffffffffffffffffffffffffffffffffffff1673ffffffffffffffffffffffffffffffffffffffff1681526020019081526020015f20541015611588576040517f8d1bd26d00000000000000000000000000000000000000000000000000000000815260040160405180910390fd5b8060045f8473ffffffffffffffffffffffffffffffffffffffff1673ffffffffffffffffffffffffffffffffffffffff1681526020019081526020015f205f3373ffffffffffffffffffffffffffffffffffffffff1673ffffffffffffffffffffffffffffffffffffffff1681526020019081526020015f2054101561163a576040517f71d0cea800000000000000000000000000000000000000000000000000000000815260040160405180910390fd5b8060045f8473ffffffffffffffffffffffffffffffffffffffff1673ffffffffffffffffffffffffffffffffffffffff1681526020019081526020015f205f3373ffffffffffffffffffffffffffffffffffffffff1673ffffffffffffffffffffffffffffffffffffffff1681526020019081526020015f205f8282546116c19190612425565b925050819055508060025f8473ffffffffffffffffffffffffffffffffffffffff1673ffffffffffffffffffffffffffffffffffffffff1681526020019081526020015f205f8282546117149190612425565b925050819055508060015f82825461172c9190612425565b925050819055505f60025f8473ffffffffffffffffffffffffffffffffffffffff1673ffffffffffffffffffffffffffffffffffffffff1681526020019081526020015f2054036117cc575f60035f8473ffffffffffffffffffffffffffffffffffffffff1673ffffffffffffffffffffffffffffffffffffffff1681526020019081526020015f205f6101000a81548160ff0219169083151502179055505b8173ffffffffffffffffffffffffffffffffffffffff167fab85194d35c4ea153d0b51f3a304d1d22cb8023e499a6503fb6c28c5864ae90e82604051611812919061229f565b60405180910390a25f73ffffffffffffffffffffffffffffffffffffffff168273ffffffffffffffffffffffffffffffffffffffff167fddf252ad1be2c89b69c2b068fc378daa952ba7f163c4a11628f55a4df523b3ef83604051611877919061229f565b60405180910390a35050565b7f000000000000000000000000000000000000000000000000000000000000000073ffffffffffffffffffffffffffffffffffffffff163373ffffffffffffffffffffffffffffffffffffffff1614611908576040517f7e68d72400000000000000000000000000000000000000000000000000000000815260040160405180910390fd5b600115155f5f9054906101000a900460ff16151503611953576040517fd25fb3f200000000000000000000000000000000000000000000000000000000815260040160405180910390fd5b60015f5f6101000a81548160ff0219169083151502179055503373ffffffffffffffffffffffffffffffffffffffff167f62e78cea01bee320cd4e420270b5ea74000d11b0c9f74754ebdbfc544b05a25860405160405180910390a2565b5f7f0000000000000000000000000000000000000000000000000000000000000000905090565b60606040518060400160405280600381526020017f5652430000000000000000000000000000000000000000000000000000000000815250905090565b5f5f5f9054906101000a900460ff1615611a5b576040517f294b956200000000000000000000000000000000000000000000000000000000815260040160405180910390fd5b5f73ffffffffffffffffffffffffffffffffffffffff168373ffffffffffffffffffffffffffffffffffffffff1603611ac0576040517f90470d6900000000000000000000000000000000000000000000000000000000815260040160405180910390fd5b8160045f3373ffffffffffffffffffffffffffffffffffffffff1673ffffffffffffffffffffffffffffffffffffffff1681526020019081526020015f205f8573ffffffffffffffffffffffffffffffffffffffff1673ffffffffffffffffffffffffffffffffffffffff1681526020019081526020015f20541015611b72576040517f71d0cea800000000000000000000000000000000000000000000000000000000815260040160405180910390fd5b5f8260045f3373ffffffffffffffffffffffffffffffffffffffff1673ffffffffffffffffffffffffffffffffffffffff1681526020019081526020015f205f8673ffffffffffffffffffffffffffffffffffffffff1673ffffffffffffffffffffffffffffffffffffffff1681526020019081526020015f205f828254611bfa9190612425565b92505081905590508373ffffffffffffffffffffffffffffffffffffffff163373ffffffffffffffffffffffffffffffffffffffff167f8c5be1e5ebec7d5bd14f71427d1e84f3dd0314c0f7b2291e5b200ac8c7c3b92583604051611c5f919061229f565b60405180910390a3600191505092915050565b5f5f5f9054906101000a900460ff1615611cb8576040517f294b956200000000000000000000000000000000000000000000000000000000815260040160405180910390fd5b5f73ffffffffffffffffffffffffffffffffffffffff168373ffffffffffffffffffffffffffffffffffffffff1603611d1d576040517f90470d6900000000000000000000000000000000000000000000000000000000815260040160405180910390fd5b8160025f3373ffffffffffffffffffffffffffffffffffffffff1673ffffffffffffffffffffffffffffffffffffffff1681526020019081526020015f20541015611d94576040517f8d1bd26d00000000000000000000000000000000000000000000000000000000815260040160405180910390fd5b8160025f3373ffffffffffffffffffffffffffffffffffffffff1673ffffffffffffffffffffffffffffffffffffffff1681526020019081526020015f205f828254611de09190612425565b925050819055508160025f8573ffffffffffffffffffffffffffffffffffffffff1673ffffffffffffffffffffffffffffffffffffffff1681526020019081526020015f205f828254611e339190612458565b92505081905550600160035f8573ffffffffffffffffffffffffffffffffffffffff1673ffffffffffffffffffffffffffffffffffffffff1681526020019081526020015f205f6101000a81548160ff0219169083151502179055505f60025f3373ffffffffffffffffffffffffffffffffffffffff1673ffffffffffffffffffffffffffffffffffffffff1681526020019081526020015f205403611f2c575f60035f3373ffffffffffffffffffffffffffffffffffffffff1673ffffffffffffffffffffffffffffffffffffffff1681526020019081526020015f205f6101000a81548160ff021916908315150217905550611f82565b600160035f3373ffffffffffffffffffffffffffffffffffffffff1673ffffffffffffffffffffffffffffffffffffffff1681526020019081526020015f205f6101000a81548160ff0219169083151502179055505b8273ffffffffffffffffffffffffffffffffffffffff163373ffffffffffffffffffffffffffffffffffffffff167fddf252ad1be2c89b69c2b068fc378daa952ba7f163c4a11628f55a4df523b3ef84604051611fdf919061229f565b60405180910390a36001905092915050565b5f60035f8373ffffffffffffffffffffffffffffffffffffffff1673ffffffffffffffffffffffffffffffffffffffff1681526020019081526020015f205f9054906101000a900460ff169050919050565b7f000000000000000000000000000000000000000000000000000000000000000081565b5f60045f8473ffffffffffffffffffffffffffffffffffffffff1673ffffffffffffffffffffffffffffffffffffffff1681526020019081526020015f205f8373ffffffffffffffffffffffffffffffffffffffff1673ffffffffffffffffffffffffffffffffffffffff1681526020019081526020015f2054905092915050565b6002602052805f5260405f205f915090505481565b5f81519050919050565b5f82825260208201905092915050565b8281835e5f83830152505050565b5f601f19601f8301169050919050565b5f612140826120fe565b61214a8185612108565b935061215a818560208601612118565b61216381612126565b840191505092915050565b5f6020820190508181035f8301526121868184612136565b905092915050565b5f5ffd5b5f73ffffffffffffffffffffffffffffffffffffffff82169050919050565b5f6121bb82612192565b9050919050565b6121cb816121b1565b81146121d5575f5ffd5b50565b5f813590506121e6816121c2565b92915050565b5f819050919050565b6121fe816121ec565b8114612208575f5ffd5b50565b5f81359050612219816121f5565b92915050565b5f5f604083850312156122355761223461218e565b5b5f612242858286016121d8565b92505060206122538582860161220b565b9150509250929050565b5f8115159050919050565b6122718161225d565b82525050565b5f60208201905061228a5f830184612268565b92915050565b612299816121ec565b82525050565b5f6020820190506122b25f830184612290565b92915050565b5f602082840312156122cd576122cc61218e565b5b5f6122da848285016121d8565b91505092915050565b5f5f5f606084860312156122fa576122f961218e565b5b5f612307868287016121d8565b9350506020612318868287016121d8565b92505060406123298682870161220b565b9150509250925092565b5f60ff82169050919050565b61234881612333565b82525050565b5f6020820190506123615f83018461233f565b92915050565b5f5f6040838503121561237d5761237c61218e565b5b5f61238a858286016121d8565b925050602061239b858286016121d8565b9150509250929050565b5f602082840312156123ba576123b961218e565b5b5f6123c78482850161220b565b91505092915050565b6123d9816121b1565b82525050565b5f6020820190506123f25f8301846123d0565b92915050565b7f4e487b71000000000000000000000000000000000000000000000000000000005f52601160045260245ffd5b5f61242f826121ec565b915061243a836121ec565b9250828203905081811115612452576124516123f8565b5b92915050565b5f612462826121ec565b915061246d836121ec565b9250828201905080821115612485576124846123f8565b5b9291505056fea2646970667358221220e509b754a3a1ad3bf3f310243784917bd7e763e87d77e68840ac702a7c13974e64736f6c634300081e0033","linkReferences":{}},"methodIdentifiers":{"allowance(address,address)":"dd62ed3e","approve(address,uint256)":"095ea7b3","balanceOf(address)":"70a08231","burn(uint256)":"42966c68","burnFrom(address,uint256)":"79cc6790","decimals()":"313ce567","decreaseAllowance(address,uint256)":"a457c2d7","getListOfHolders(address)":"d276982c","getOwner()":"893d20e8","i_owner()":"dba6335f","increaseAllowance(address,uint256)":"39509351","mint(address,uint256)":"40c10f19","name()":"06fdde03","pause()":"8456cb59","s_allowance(address,address)":"387c8e6d","s_balance(address)":"e7394daf","s_isHolder(address)":"1f78de4f","s_pause()":"333d6b80","s_totalSupply()":"6a74a0fc","symbol()":"95d89b41","totalSupply()":"18160ddd","transfer(address,uint256)":"a9059cbb","transferFrom(address,address,uint256)":"23b872dd","unpause()":"3f4ba83a"},"id":22}